:100000000C945E000C9486000C9486000C94860080
:100010000C9486000C9486000C9486000C94860048
:100020000C9486000C9486000C9486000C94860038
:100030000C9486000C9486000C9486000C94860028
:100040000C94AD010C9486000C9486000C948600F0
:100050000C9486000C9486000C9486000C94860008
:100060000C9486000C948600000000080002010039
:100070000003040700000000000000000000000072
:10008000250028002B0000000000240027002A0083
:10009000040404040404040402020202020203032E
:1000A0000303030301020408102040800102040836
:1000B00010200102040810205802800211241FBEE3
:1000C000CFEFD8E0DEBFCDBF11E0A0E0B1E0E4EEBD
:1000D000F7E002C005900D92A634B107D9F721E0F0
:1000E000A6E4B1E001C01D92A935B207E1F710E026
:1000F000CDE5D0E004C02197FE010E94AE02CC35D0
:10010000D107C9F70E94F5010C94E5030C94000097
:1001100090E0FC01EC55FF4F249180579F4FFC016C
:100120008491882399F090E0880F991FFC01EA5789
:10013000FF4FA591B491FC01E458FF4F8591949134
:100140008FB7F894EC91E22BEC938FBF089590E079
:10015000FC01E859FF4F2491FC01EC55FF4F34910D
:10016000FC01E057FF4FE491EE23D9F0222349F040
:10017000243031F1B8F4223059F12330D9F0213054
:1001800019F1F0E0EE0FFF1FE458FF4FA591B49175
:100190008FB7F894EC91611124C030953E233C93C5
:1001A0008FBF08952730B9F0283059F78091B000FB
:1001B0008F7D14C0809180008F7780938000E1CF85
:1001C000809180008F7DF9CF84B58F7784BDD9CFA2
:1001D00084B58F7DFBCF8091B0008F778093B00086
:1001E000D0CF3E2BDCCF789484B5826084BD84B5BB
:1001F000816084BD85B5826085BD85B5816085BD22
:10020000EEE6F0E0808181608083E1E8F0E010823A
:10021000808182608083808181608083E0E8F0E07B
:10022000808181608083E1EBF0E080818460808365
:10023000E0EBF0E0808181608083EAE7F0E080819C
:1002400084608083808182608083808181608083FC
:100250008081806880831092C1000895823091056A
:1002600038F0880F991F880F991F05970197F1F7AC
:100270000895CF92DF92EF92FF920F931F93CF9347
:10028000DF93CDB7DEB764970FB6F894DEBF0FBE2D
:10029000CDBF9C018E010B5E1F4FFE01319692E097
:1002A000C92ED12C7801C901B6010E948602D8015D
:1002B0009E938E938D0137FF02C02F5F3F4F359580
:1002C00027950E171F0771F7B2E1EB0EF11CF8012D
:1002D000819191918F0160E0019789F586E00E94FC
:1002E000A70086E990E00E942E0161E086E00E946E
:1002F000A70086E990E00E942E0160E086E00E945F
:10030000A70086E990E00E942E0161E086E00E944D
:10031000A70086E990E00E942E01E016F106B9F6EA
:1003200064960FB6F894DEBF0FBECDBFDF91CF91BC
:100330001F910F91FF90EF90DF90CF90089586E08E
:100340000E94A7008CE291E00E942E0161E086E00D
:100350000E94A7008CE291E0DECF1F921FB61F9291
:1003600011242F933F938F939F93AF93BF938091CB
:10037000510190915201A0915301B09154013091DB
:10038000500123E0230F2D3750F50196A11DB11D1B
:10039000209350018093510190935201A0935301F7
:1003A000B093540180914C0190914D01A0914E0168
:1003B000B0914F010196A11DB11D80934C01909306
:1003C0004D01A0934E01B0934F01BF91AF919F910A
:1003D0008F913F912F911F901FBE1F90189526E877
:1003E000230F0296A11DB11DD3CF0E94F30086E01A
:1003F0000E94880060E1E62EF12C00E010E081E12F
:1004000093E00E943901D0E0C0E080914A019091D0
:100410004B01C817D907E8F5809146019091470133
:1004200020E0009721F08C0F9D1FFC012081022EFF
:10043000000C330BC901B7010E948602F90154E098
:10044000F595E7955A95E1F72F3F310509F0D8F476
:10045000EA5FFE4F2081022E000C330B80319105A4
:10046000A8F48A5F9E4FFC018081082E000C990B36
:1004700045E0220F331F4A95E1F7820F931F0E9438
:1004800039012196C2CF30E020E0E8CF90E080E053
:10049000EFCF86ED93E00E94390187EA91E00E9458
:1004A00039010115110509F4AACF0E940000A7CF58
:1004B000109249011092480110924B0110924A018A
:1004C0008FE290E00E94B402FC01009729F41092A0
:1004D0004701109246010895909347018093460189
:1004E0008EE290E0909349018093480110829093AE
:1004F0004B0180934A0166E171E0CF010C94DE0369
:1005000080914601909147010C944D0397FB072E73
:1005100016F4009407D077FD09D00E949A0207FCD8
:1005200005D03EF4909581959F4F08957095619503
:100530007F4F0895AA1BBB1B51E107C0AA1FBB1F19
:10054000A617B70710F0A61BB70B881F991F5A955F
:10055000A9F780959095BC01CD010895EE0FFF1F7E
:100560000590F491E02D09940F931F93CF93DF939F
:100570008230910510F482E090E0E0915701F09113
:10058000580130E020E0B0E0A0E0309799F4211568
:10059000310509F447C0281B390B24303105C0F55B
:1005A0008A819B816115710571F1FB0193838283BF
:1005B000FE0111C040815181028113814817590702
:1005C000F8F04817590799F4109761F012960C93B8
:1005D000129713961C933296CF01DF91CF911F9102
:1005E0000F9108950093570110935801F4CF2115EE
:1005F000310519F04217530718F49A01BD01EF01B4
:10060000DF01F801C2CF9093580180935701D0CFFA
:10061000FE01E20FF31F8193919322503109398338
:100620002883DACF2091550130915601232B41F4D4
:10063000209102013091030130935601209355011E
:1006400020910001309101012115310541F42DB7B0
:100650003EB74091040150910501241B350BE091F8
:100660005501F0915601E217F307A0F42E1B3F0B42
:100670002817390778F0AC014E5F5F4F2417350714
:1006800048F04E0F5F1F50935601409355018193E0
:100690009193A2CFF0E0E0E09FCFCF93DF9300975C
:1006A000E9F0FC01329713821282C0915701D09178
:1006B0005801DE0130E020E02097A1F42081318153
:1006C000820F931F20915501309156012817390749
:1006D00009F067C0F0935601E0935501DF91CF9187
:1006E0000895DA01AE17BF0708F040C012964D9189
:1006F0005C9113979D014115510599F7D901139606
:10070000FC93EE9312974D915D91A40FB51FEA17DC
:10071000FB0779F4808191810296840F951FD9019E
:1007200011969C938E938281938113969C938E93C2
:100730001297B0E0A0E08A819B810097B9F5FE0195
:1007400081919191E80FF91F809155019091560187
:100750008E179F0719F6109761F5109258011092A5
:100760005701D0935601C0935501B8CFB383A283EC
:1007700040815181840F951FA817B90771F44E5F0E
:100780005F4F8D919C911197480F591F5183408362
:1007900012968D919C91938382832115310509F0E6
:1007A000ADCFF0935801E093570198CFDE01EC01F3
:1007B000C2CF13961C921E921297D3CFFB01DC017D
:1007C00001900D920020E1F7089510E0CDE5D0E012
:1007D00004C0FE010E94AE022196CE35D107C9F7B2
:0407E000F894FFCFBB
:1007E4000000590120001E0914150A0B0E0F1213E4
:1007F40016171A1B1C1D3A2D290A4C692D4669200F
:1008040069732074686520626573742050726F6A1E
:100814006563742E0A4368616E6765206D79204DA7
:06082400494E442E0000C5
:00000001FF
